:100000000C942A000C9447000C9447000C94470071
:100010000C9447000C9447000C9447000C944F0933
:100020000C9447000C9447000C9447000C94470034
:100030000C9447000C9447000C9447000C94470024
:100040000C9447000C9447000C9447000C94470014
:100050000C94470011241FBECFE5D8E0DEBFCDBF12
:1000600011E0A0E6B0E0E4EDF4E302C005900D92EB
:10007000A438B107D9F714E0A4E8B1E001C01D929B
:10008000A936B107E1F70E94B1190C94681A0C94D3
:100090000000EF92FF920F931F937B018C0120E0F1
:1000A00030E040E05FE40E94190388238CF0C8012F
:1000B000B70120E030E040E05FE40E94C1010E940F
:1000C000A7039B01AC01205030404040504806C07F
:1000D000C801B7010E94A7039B01AC01B901CA0185
:1000E0001F910F91FF90EF900895A0E0B0E0EBE733
:1000F000F0E00C94211ADC012B01FA019C91923062
:1001000008F439C1EB018881823008F433C194309E
:1001100069F4843009F02FC111969C91119789815F
:10012000981709F428C1A5E7B0E025C1843009F487
:1001300021C18230A9F4923009F01DC19A01AD01AC
:1001400088E0EA010990AE01E90109929E0181501F
:10015000C1F7E201898111969C918923818308C1AD
:10016000923009F407C112962D903C901397EB0141
:100170008A819B811496AD90BD90CD90DC901797AD
:10018000EC80FD800E811F819101281B390BB90184
:1001900037FF04C066277727621B730B6032710537
:1001A0000CF061C0121613066CF537014801062EDB
:1001B00004C096948794779467940A94D2F721E0C8
:1001C00030E040E050E004C0220F331F441F551FB1
:1001D0006A95D2F721503040404050402E213F21B7
:1001E00040235123211531054105510521F021E01E
:1001F00030E040E050E079018A01E628F72808293C
:1002000019293CC0232BD1F1260E371E350146019A
:10021000062E04C096948794779467940A94D2F734
:1002200021E030E040E050E004C0220F331F441FC3
:10023000551F6A95D2F721503040404050402A2146
:100240003B214C215D21211531054105510521F04E
:1002500021E030E040E050E059016A01A628B728CB
:10026000C828D9280BC0821593052CF01C01AA249C
:10027000BB24650103C0EE24FF24870111969C91E5
:10028000D20111968C91981709F445C0992339F041
:10029000A80197012A193B094C095D0906C0A6016E
:1002A00095012E193F09400B510B57FD08C01182D3
:1002B0003382228224833583468357831DC081E0A5
:1002C00081833382228288279927DC01821B930B4A
:1002D000A40BB50B84839583A683B7830DC0220F2F
:1002E000331F441F551F24833583468357838281E0
:1002F000938101979383828324813581468157813D
:10030000DA01C9010197A109B1098F5F9F4FAF4F72
:10031000BF4328F30BC0918333822282EA0CFB1C7B
:100320000C1D1D1DE482F5820683178383E0808304
:10033000248135814681578157FF1AC0C901AA27F8
:1003400097FDA095BA2F81709070A070B0705695EF
:10035000479537952795822B932BA42BB52B848318
:100360009583A683B7838281938101969383828349
:10037000DF0101C0D201CD01CDB7DEB7E2E10C94BF
:100380003D1AA0E2B0E0E7ECF1E00C942D1A69838D
:100390007A838B839C832D833E834F835887E9E048
:1003A000EE2EF12CEC0EFD1ECE010196B7010E943F
:1003B0001F058E010F5E1F4FCE010596B8010E94EA
:1003C0001F058A8991E089278A8BC701B801AE0190
:1003D000475E5F4F0E9475000E944A04A096E6E0C7
:1003E0000C94491AA0E2B0E0E8EFF1E00C942D1A69
:1003F00069837A838B839C832D833E834F835887C5
:10040000F9E0EF2EF12CEC0EFD1ECE010196B701A6
:100410000E941F058E010F5E1F4FCE010596B80189
:100420000E941F05C701B801AE01475E5F4F0E94E1
:1004300075000E944A04A096E6E00C94491AA0E2D6
:10044000B0E0E5E2F2E00C94211A69837A838B83B1
:100450009C832D833E834F835887CE010196BE0136
:10046000675F7F4F0E941F05CE010596BE016F5E3C
:100470007F4F0E941F059985923088F089898230CC
:10048000C8F0943019F4823051F404C0843029F457
:10049000923081F485E790E0C6C0923049F420E0C4
:1004A0009A858A89981321E02A87CE010996BBC0D4
:1004B000823049F420E09A858A89981321E02A8BBA
:1004C000CE014196B0C02D843E844F8458886D88FB
:1004D0007E888F88988CEE24FF248701AA24BB2471
:1004E000650140E050E060E070E0E0E0F0E0C10174
:1004F00081709070892BE9F0E60CF71C081D191D1E
:100500009A01AB012A0D3B1D4C1D5D1D80E090E062
:10051000A0E0B0E0E614F7040805190520F481E036
:1005200090E0A0E0B0E0BA01A901480F591F6A1F8E
:100530007B1FAA0CBB1CCC1CDD1C97FE08C081E0F5
:1005400090E0A0E0B0E0A82AB92ACA2ADB2A3196B6
:10055000E032F10549F0660C771C881C991C569412
:10056000479437942794C3CFFA85EA892B893C892D
:100570008B859C85280F391F2E5F3F4F17C0CA01FE
:1005800081709070892B61F016950795F794E79428
:1005900080E090E0A0E0B0E8E82AF92A0A2B1B2BC3
:1005A00076956795579547952F5F3F4F77FDE7CF36
:1005B0000CC0440F551F661F771F17FD4160EE0CDE
:1005C000FF1C001F111F21503040403090E05907A0
:1005D00090E0690790E4790760F32B8F3C8FDB0193
:1005E000CA018F779070A070B07080349105A1051A
:1005F000B10561F447FD0AC0E114F10401051105DC
:1006000029F0405C5F4F6F4F7F4F40781A8EFE1786
:1006100011F081E08A8F4D8F5E8F6F8F78A383E01A
:10062000898FCE0149960E944A04A096E2E10C947B
:100630003D1AA8E1B0E0EFE1F3E00C942D1A6983D4
:100640007A838B839C832D833E834F83588789E0F5
:10065000E82EF12CEC0EFD1ECE010196B7010E9492
:100660001F058E010F5E1F4FCE010596B8010E9437
:100670001F058985823040F08989823028F0C701C2
:10068000B8010E94970501C08FEF6896E6E00C94D0
:10069000491AA8E0B0E0EFE4F3E00C942A1A9B01B9
:1006A000AC0183E08983DA01C9018827B7FD83950E
:1006B0009927AA27BB27B82E2115310541055105D9
:1006C00019F482E089833AC08823A9F0203080E0C1
:1006D000380780E0480780E8580729F460E070E0B8
:1006E00080E09FEC30C0EE24FF248701E21AF30A79
:1006F000040B150B02C079018A018EE1C82ED12CA2
:10070000DC82CB82ED82FE820F831887C801B7019D
:100710000E94FB0301971816190684F4082E04C0E2
:10072000EE0CFF1C001F111F0A94D2F7ED82FE820F
:100730000F831887C81AD90ADC82CB82BA82CE010D
:1007400001960E944A042896E9E00C94461AACE00F
:10075000B0E0EDEAF3E00C94311A69837A838B837D
:100760009C83CE010196BE016B5F7F4F0E941F05E7
:100770008D81823061F1823050F1843021F48E819C
:10078000882351F12EC02F81388537FD20C06E811E
:100790002F3131051CF06623F9F023C08EE190E083
:1007A000821B930B29853A854B855C8504C0569541
:1007B0004795379527958A95D2F76623B1F05095DE
:1007C0004095309521953F4F4F4F5F4F0EC020E031
:1007D00030E040E050E009C02FEF3FEF4FEF5FE720
:1007E00004C020E030E040E050E8B901CA012C9696
:1007F000E2E00C944D1AEF92FF920F931F937B014E
:100800008C0180E0E81680E0F80681E0080780E0CF
:10081000180788F48FEFE816F1040105110531F08F
:1008200028F088E090E0A0E0B0E017C080E090E021
:10083000A0E0B0E012C080E0E81680E0F80680E0BA
:10084000080781E0180728F088E190E0A0E0B0E018
:1008500004C080E190E0A0E0B0E020E230E040E0C1
:1008600050E0281B390B4A0B5B0B04C0169507950B
:10087000F794E7948A95D2F7F701E358FF4F808108
:10088000281B310941095109C9011F910F91FF909E
:10089000EF900895DF92EF92FF920F931F93FC0168
:1008A000E480F58006811781D1808081823048F410
:1008B00080E090E0A0E1B0E0E82AF92A0A2B1B2BA7
:1008C000A5C0843009F49FC0823021F4EE24FF24B7
:1008D000870105C0E114F1040105110519F4E0E0F8
:1008E000F0E096C0628173819FEF623879070CF067
:1008F0005BC022E83FEF261B370B2A3131052CF075
:1009000020E030E040E050E02AC0B801A701022E0C
:1009100004C076956795579547950A94D2F781E07C
:1009200090E0A0E0B0E004C0880F991FAA1FBB1F91
:100930002A95D2F70197A109B1098E219F21A02301
:10094000B1230097A105B10521F081E090E0A0E07E
:10095000B0E09A01AB01282B392B4A2B5B2BDA0133
:10096000C9018F779070A070B07080349105A10597
:10097000B10539F427FF09C0205C3F4F4F4F5F4F4F
:1009800004C0215C3F4F4F4F5F4FE0E0F0E020306C
:10099000A0E03A07A0E04A07A0E45A0710F0E1E01F
:1009A000F0E079018A0127C06038710564F5FB0128
:1009B000E158FF4FD801C7018F779070A070B070D9
:1009C00080349105A105B10539F4E7FE0DC080E43E
:1009D00090E0A0E0B0E004C08FE390E0A0E0B0E0E1
:1009E000E80EF91E0A1F1B1F17FF05C01695079575
:1009F000F794E794319687E016950795F794E79476
:100A00008A95D1F705C0EE24FF248701EFEFF0E0CF
:100A10006E2F679566276795902F9F77D794DD2473
:100A2000D7948E2F8695492F462B582F5D29B701D5
:100A3000CA011F910F91FF90EF90DF900895FC0184
:100A4000DB01408151812281622F6F7770E0221F8C
:100A50002227221F9381892F880F822B282F30E095
:100A6000991F9927991F11969C931197211531056C
:100A7000A9F5411551056105710511F482E037C0F2
:100A800082E89FEF13969C938E9312979A01AB0185
:100A900067E0220F331F441F551F6A95D1F783E08B
:100AA0008C930DC0220F331F441F551F12968D913A
:100AB0009C911397019713969C938E9312972030D5
:100AC00080E0380780E0480780E4580758F3149620
:100AD0002D933D934D935C93179708952F3F3105C8
:100AE00079F4411551056105710519F484E08C9381
:100AF000089564FF03C081E08C9312C01C9210C063
:100B00002F57304013963C932E93129783E08C938B
:100B100087E0440F551F661F771F8A95D1F77064D1
:100B200014964D935D936D937C93179708951F933F
:100B3000DC01FB019C91923008F447C08081823037
:100B400008F443C0943051F411961C91843099F507
:100B50008181682F70E0611B71093FC0843021F0F2
:100B6000923031F48230B9F18181882389F12DC02E
:100B700011961C9111978230F1F081811817D9F4E8
:100B800012962D913C91139782819381821793073E
:100B900094F028173907BCF014968D919D910D9013
:100BA000BC91A02D248135814681578128173907B2
:100BB0004A075B0718F4112341F00AC08217930714
:100BC000A407B50740F4112319F061E070E005C0F7
:100BD0006FEF7FEF02C060E070E0CB011F910895DE
:100BE000882319F0813059F408C06C9A6998709A7A
:100BF000BD9ABE98BF9ABC9A02C06C98BE9A6D9876
:100C00006B986A9A6E9A08958FB9779BFECF8FB1D1
:100C1000089517B8379A089597B18770987F892BF0
:100C200087B9369A349BFECF24B145B1942F80E02A
:100C300030E0282B392BC9010895809186019091CD
:100C40008701089580918C0190918D0108950895F8
:100C5000CF93DF93FC01C6EED3E0888199818E1794
:100C60009F0710F4EC01F9CF2A813B81CE01820F5E
:100C7000931FE817F90739F482819381820F931F3C
:100C80009B838A83FE0122813381A881B981CF01B0
:100C9000820F931FA817B907A1F480918401909146
:100CA0008501A817B90769F012968D919C91139749
:100CB000820F931F938382838D919C919183808374
:100CC00002C0B183A083CE17DF0711F0F983E88358
:100CD000DF91CF910895CF92DF92EF92FF920F9321
:100CE0001F93CF93DF93EC010E94580EE091E6032F
:100CF000F091E703309739F4CC24DD24EE24FF246F
:100D00000FEF1FEF1EC02091840130918501CC248C
:100D1000DD24EE24FF240FEF1FEF10C00894C11C48
:100D2000D11C82819381E816F90608F47C018017B2
:100D3000910708F48C010190F081E02DE217F30790
:100D400069F70E945414FB82EA821D830C83DF82C0
:100D5000CE820FB6F8940F92809186019091870110
:100D60009983888380918801909189019B878A87E4
:100D700080918A0190918B019D878C8780918C0155
:100D800090918D01998788870F900FBEDF91CF9149
:100D90001F910F91FF90EF90DF90CF900895CF9328
:100DA000DF93009749F1EC0124972A813B8137FFBB
:100DB00023C088819981892BF9F43F773B832A836B
:100DC0000E94580E80918601909187012A813B8173
:100DD000820F931F9093870180938601CE010E941A
:100DE000280680918A0190918B01019690938B0146
:100DF00080938A010E945414DF91CF910895CF927D
:100E0000DF92EF92FF920F931F93CF93DF938C01AA
:100E10000E94580E8091840190918501892B51F593
:100E20008EE891E09093E7038093E6031092E90344
:100E30001092E80322EE33E0309385012093840181
:100E40001092E5031092E4031092E3031092E20380
:100E500084E592E0909391018093900130938F010B
:100E600020938E0190938D0180938C019093870144
:100E7000809386010115110539F08FEF0B3F18079C
:100E800008F067C00B5F1F4F17FD63C00115110508
:100E900009F45FC0C0908601D0908701C016D106CA
:100EA00008F457C0C091E603D091E703E6EEF3E003
:100EB0008A819B818017910740F4888199819E01E6
:100EC000009719F0EC01F901F3CF80918401909122
:100ED0008501C817D907E9F1E080F18088819981FF
:100EE000918380838A819B81801B910B893091053E
:100EF00050F0FE01E00FF11F938382831B830A836E
:100F0000CF010E9428064A815B819601241B350B84
:100F1000309387012093860180918C0190918D01FF
:100F20002817390720F430938D0120938C01870115
:100F30000C5F1F4F50685B834A831982188280912F
:100F4000880190918901019690938901809388018D
:100F500002C000E010E00E945414C801DF91CF915C
:100F60001F910F91FF90EF90DF90CF9008950F9316
:100F70001F93CF93DF939C01FB010097B9F08FEF94
:100F80009FEFB9010E94EB196E177F0778F4C0E05C
:100F9000D0E006C0CE0160E070E0A8010E94611AB6
:100FA000CE01DF91CF911F910F910895E29F8001B3
:100FB000E39F100DF29F100D1124C8010E94FF063F
:100FC000EC01009739F7ECCFFC019C012D5F3F4FFE
:100FD000328321838FEF9FEF94838383368325832E
:100FE0003087278310820895FC01118610860895AA
:100FF000AC01FC01A181B281FB01B383A2831496F1
:101000008D919C911597958384831496ED91FC9115
:1010100015977383628315967C936E931497FB01E7
:1010200051874087FA0180818F5F80830895CF9335
:10103000DF939C01EB01488159818FEF4F3F5807A7
:1010400021F4F901A781B0850DC0D901139612963C
:10105000ED91FC911397808191814817590710F009
:10106000DF01F5CF1296ED91FC911397FB83EA8394
:10107000D583C483BD83AC831396DC93CE93129740
:1010800039872887F90180818F5F8083DF91CF9135
:101090000895CF93DF93DC011896CD91DC911997D9
:1010A00012964D915C91139714968D919C91159782
:1010B000FA019583848314962D913C911597F9013B
:1010C0005383428389819A818A179B0711F43A835B
:1010D000298319961C921E921897888181508883C3
:1010E0008881DF91CF910895FC0191E1908322E204
:1010F000229383E3829362937293129280E88293A5
:10110000129282E0829383E0829384E0829385E06E
:10111000829386E0829387E0829388E0829389E0DD
:10112000829380E18293929382E1829383E182931E
:1011300084E1829385E1829386E1829387E18293C1
:1011400088E1829389E1829380E2829381E28293B3
:10115000229383E282934293529386E2829387E2C0
:10116000829388E2829389E2829380E3829381E38F
:1011700082933197CF0108951BBC8EE08ABD8BE02E
:101180008EBD89B7806189BFA091EA03B091EB035E
:10119000CD91CDBFDD91DEBFFF91EF91DF91CF917A
:1011A000BF91AF919F918F917F916F915F914F917F
:1011B0003F912F911F910F91FF90EF90DF90CF9073
:1011C000BF90AF909F908F907F906F905F904F9067
:1011D0003F902F901F900F900FBE0F90089581E0C9
:1011E000089508950F920FB6F8940F921F9211244C
:1011F0002F923F924F925F926F927F928F929F9227
:10120000AF92BF92CF92DF92EF92FF920F931F9314
:101210002F933F934F935F936F937F938F939F93FE
:10122000AF93BF93CF93DF93EF93FF93A091EA0324
:10123000B091EB030DB60D920EB60D920E947D0E8D
:10124000882311F00E94950FA091EA03B091EB035F
:10125000CD91CDBFDD91DEBFFF91EF91DF91CF91B9
:10126000BF91AF919F918F917F916F915F914F91BE
:101270003F912F911F910F91FF90EF90DF90CF90B2
:10128000BF90AF909F908F907F906F905F904F90A6
:101290003F902F901F900F900FBE0F9008950E94C7
:1012A000F20818950F920FB6F8940F921F9211241E
:1012B0002F923F924F925F926F927F928F929F9266
:1012C000AF92BF92CF92DF92EF92FF920F931F9354
:1012D0002F933F934F935F936F937F938F939F933E
:1012E000AF93BF93CF93DF93EF93FF93A091EA0364
:1012F000B091EB030DB60D920EB60D920E94950FB4
:10130000A091EA03B091EB03CD91CDBFDD91DEBF9B
:10131000FF91EF91DF91CF91BF91AF919F918F910D
:101320007F916F915F914F913F912F911F910F91FD
:10133000FF90EF90DF90CF90BF90AF909F908F90F5
:101340007F906F905F904F903F902F901F900F90E5
:101350000FBE0F900895FC010FB6F8940F92828D86
:101360000F900FBE0895FC010FB6F8940F92928D66
:101370000F900FBE838D891B0895FC01828D089507
:10138000FC01828D90E0882309F491E0892F089573
:10139000FC01928D20E0838D981709F421E0822FC3
:1013A00008950E94CF060895FC01562FA72F248D83
:1013B0002223B9F086819781820F911D97838683BE
:1013C000248135818217930720F080819181978352
:1013D0008683448D66817781852F9A2F50E00E9405
:1013E000581A08950F931F93CF93DF93EC018A8DC2
:1013F000882341F00E811F81CE010E94D4091F83F2
:101400000E8381E0DF91CF911F910F9108950F938B
:101410001F93CF93DF93EC01042F1A8D4C8D44233F
:10142000C1F10023B1F48A819B8150E00E94581AD7
:101430008C8D2A813B81280F311D3B832A838C812F
:101440009D812817390728F1888199819B838A8398
:1014500020C08E819F8150E00E94581A8C8D90E0B0
:1014600044275527481B590B8E819F81840F951F58
:101470009F838E83288139818217930730F48C8172
:101480009D81840F951F9F838E83023011F411116B
:1014900011501F5F1A8F80E0DF91CF911F910F9144
:1014A0000895EF92FF920F931F93CF93DF93EC0178
:1014B0007A011A8D112311F480E01EC00D8D0E9457
:1014C000D40911501A8F0F3F81F48885882399F031
:1014D000CE0108960E94CF0F882369F0E114F10431
:1014E00051F081E0F701808307C00E946F0E08175A
:1014F00010F40F5F0D8F81E0DF91CF911F910F915D
:10150000FF90EF900895EF92FF921F93CF93DF9398
:10151000EC017B019A8D8B8D981710F080E01CC038
:101520001E8D9F5F9A8F1F3F81F48989882399F0D0
:10153000CE0141960E94CF0F882369F0E114F10497
:1015400051F081E0F701808307C00E946F0E1817E9
:1015500010F41F5F1E8F81E0DF91CF911F91FF90EC
:10156000EF900895EF92FF921F93CF93DF93EC01DA
:101570007A019A8D8B8D981720F0223011F080E03F
:101580001FC01E8D8A8DCE01422F0E94070A1F3F69
:1015900081F48989882399F0CE0141960E94CF0F6A
:1015A000882369F0E114F10451F081E0F7018083B0
:1015B00007C00E946F0E181710F41F5F1E8F81E086
:1015C000DF91CF911F91FF90EF900895EF92FF92DE
:1015D0001F93CF93DF93EC010FB6F8940F921E8DFB
:1015E00091E1E92EF12CEC0EFD1E0BC089898823B8
:1015F00051F0C7010E94CF0F882311F00E946C1197
:10160000115011169CF38FEF8E8F0F900FBE0FB6F7
:10161000F8940F921D8D88E0E82EF12CEC0EFD1E43
:101620000BC08885882351F0C7010E94CF0F882303
:1016300011F00E946C11115011169CF38FEF8D8FD9
:101640000F900FBEDF91CF911F91FF90EF90089503
:101650008F929F92AF92BF92CF92DF92EF92FF92C2
:101660000F931F93DF93CF9300D000D00F92CDB78D
:10167000DEB77C015B015D834C8341E1C42ED12C3C
:10168000C80ED91E20E08E010F5F1F4F34E0832E5D
:10169000912C8C0E9D1E01C021E00FB6F8940F9284
:1016A000F701828D8823B9F006811781C701B50142
:1016B0000E94D409F701178306838189882339F0B2
:1016C000C6010E94CF0F882311F00E9452090F908B
:1016D0000FBE81E054C08C819D81892B21F40F9035
:1016E0000FBE80E04CC0222319F4C8010E942C11C7
:1016F0000F900FBE0E94580E0FB6F8940F92F7018C
:10170000858D8F3F09F4158EF701868D8F3F09F483
:10171000168E0F900FBEC801B4010E9437118823A6
:10172000F9F40FB6F8940F92F701828D0F900FBE67
:10173000882381F46C817D81C6010E942B17C7012B
:101740000E94E60A0E945414882309F0A5CF0E9443
:101750005209A2CFC7010E94E60A0E9454149CCFEE
:10176000C7010E94E60A0E9454140FB6F8940F9223
:10177000F701828D0F900FBE882309F08DCF0F9057
:101780000F900F900F900F90CF91DF911F910F91BD
:10179000FF90EF90DF90CF90BF90AF909F908F9091
:1017A0000895AF92BF92CF92DF92EF92FF920F9384
:1017B0001F93DF93CF9300D000D00F92CDB7DEB749
:1017C0008C017D836C8361E1E62EF12CE80EF91E1D
:1017D00020E06E010894C11CD11C54E0A52EB12C50
:1017E000AC0EBD1E01C021E00FB6F8940F92F801B7
:1017F000828D882389F08150828F8085882341F0F3
:10180000C80108960E94CF0F882311F00E94520948
:101810000F900FBE81E054C08C819D81892B21F4F3
:101820000F900FBE80E04CC0222319F4C6010E9425
:101830002C110F900FBE0E94580E0FB6F8940F9205
:10184000F801858D8F3F09F4158EF801868D8F3F45
:1018500009F4168E0F900FBEC601B5010E94371114
:101860008823F9F40FB6F8940F92F801828D0F9047
:101870000FBE882381F46C817D81C7010E942B17E4
:10188000C8010E94E60A0E945414882309F0ABCFD5
:101890000E945209A8CFC8010E94E60A0E9454146F
:1018A000A2CFC8010E94E60A0E9454140FB6F89411
:1018B0000F92F801828D0F900FBE882309F093CF0D
:1018C0000F900F900F900F900F90CF91DF911F917D
:1018D0000F91FF90EF90DF90CF90BF90AF90089561
:1018E0006F927F928F929F92AF92BF92CF92DF9230
:1018F000FF920F931F93DF93CF9300D000D00F92EE
:10190000CDB7DEB78C015B015D834C83E1E1CE2E68
:10191000D12CC80ED91E20E04E010894811C911CC8
:1019200074E0672E712C6C0E7D1E01C021E00FB695
:10193000F8940F92F801F28CFF20B1F0C801B501C4
:101940000E94D409FA94F801F28E8085882341F030
:10195000C80108960E94CF0F882311F00E945209F7
:101960000F900FBE81E054C08C819D81892B21F4A2
:101970000F900FBE80E04CC0222319F4C4010E94D6
:101980002C110F900FBE0E94580E0FB6F8940F92B4
:10199000F801858D8F3F09F4158EF801868D8F3FF4
:1019A00009F4168E0F900FBEC401B3010E943711C7
:1019B0008823F9F40FB6F8940F92F801828D0F90F6
:1019C0000FBE882381F46C817D81C6010E942B1794
:1019D000C8010E94E60A0E945414882309F0A6CF89
:1019E0000E945209A3CFC8010E94E60A0E94541423
:1019F0009DCFC8010E94E60A0E9454140FB6F894C5
:101A00000F92F801828D0F900FBE882309F08ECFC0
:101A10000F900F900F900F900F90CF91DF911F912B
:101A20000F91FF90DF90CF90BF90AF909F908F90DD
:101A30007F906F9008956F927F929F92AF92BF9226
:101A4000CF92DF92EF92FF920F931F93DF93CF938A
:101A500000D000D00F92CDB7DEB78C016B015D8353
:101A60004C83922EA8E0EA2EF12CE80EF91E20E01D
:101A70005E010894A11CB11CF4E06F2E712C6C0E59
:101A80007D1E01C021E00FB6F8940F92F801928DEF
:101A9000838D981718F0F2E09F16C9F4C801B601BB
:101AA000492D0E94070A982FF8018189882339F06F
:101AB000C80141960E94CF0F882329F002C09923C4
:101AC00011F00E9452090F900FBE81E04CC08C8132
:101AD0009D81892B19F40F900FBE44C0222319F465
:101AE000C5010E942C110F900FBE0E94580E0FB618
:101AF000F8940F92F801858D8F3F09F4158EF80147
:101B0000868D8F3F09F4168E0F900FBEC501B3016D
:101B10000E943711882309F50FB6F8940F92F80147
:101B2000928D0F900FBEF801838D981781F46C8110
:101B30007D81C7010E942B17C8010E94E60A0E94FE
:101B40005414882309F09ECF0E9452099BCFC801EC
:101B50000E94E60A0E94541495CFC8010E94E60A2A
:101B60000E94541480E00F900F900F900F900F90F0
:101B7000CF91DF911F910F91FF90EF90DF90CF9069
:101B8000BF90AF909F907F906F900895CF93DF9319
:101B9000EC01E62F009709F44FC02B8D222309F4A6
:101BA0004BC03C8D8FEF9FE7622F70E00E94EB19D6
:101BB000832F90E06817790708F43EC00FB6F894B9
:101BC0000F92329FC001112448815981840F951FC3
:101BD0009D838C831A8E5B834A832B8D30E021504A
:101BE00030408C8D90E0BC01269FC001279F900D56
:101BF000369F900D1124480F591F5F834E838FEF3E
:101C00008D8F8E8FEE2361F48885882389F0CE0135
:101C100008960E94CF0F882359F00E94520908C0ED
:101C2000CE0108960E94E407CE0141960E94E40787
:101C30000F900FBE81E001C080E0DF91CF91089549
:101C40000F931F93CF93DF93182F062F882341F113
:101C50008FEF9FE7612F70E00E94EB19802F90E0DB
:101C600068177907E8F0019FC00111242FE7813E32
:101C70009207B0F44F960E94FF06FC01EC0100971A
:101C800089F0002319F49183808303C04F969183D8
:101C90008083138F048FCF0161E00E94C60D02C0C4
:101CA000C0E0D0E0CE01DF91CF911F910F91089558
:101CB0008091EC038F5F8093EC0308950FB6F89446
:101CC0000F922091EF033091F0030F900FBEC901E6
:101CD00008952091EF033091F003C9010895809198
:101CE000F6030895009721F48091EA039091EB03A5
:101CF0009C01275E3F4FC9010895EF92FF920F9319
:101D00001F93CF93DF938091EC03882309F0FBC0EE
:101D10000091EF031091F0030F5F1F4F1093F0033A
:101D20000093EF030115110561F520913B043091FB
:101D30003C0480913D0490913E0490933C04809338
:101D40003B0430933E0420933D048091F3038F5F66
:101D50008093F303E0913B04F0913C04808188235D
:101D600019F48FEF9FEF09C0E0913B04F0913C0420
:101D70000580F681E02D808191819093F20380931C
:101D8000F1038091F1039091F2030817190708F409
:101D9000A2C0FF2439E0E32EE0913B04F0913C0423
:101DA0008081882319F48FEF9FEF0EC0E0913B04F0
:101DB000F0913C040580F681E02DC681D7818A81AF
:101DC0009B810817190728F49093F2038093F1037D
:101DD00083C0AA85BB854C815D818E819F81FA017C
:101DE000958384832E813F81F90153834283BE0111
:101DF0006E5F7F4F11968D919C9112978617970772
:101E000021F412963C932E9311971B861A868C917F
:101E100081508C93AC89BD891097F9F02E853F8550
:101E200088899989F9019583848348895989FA01B8
:101E3000338322839E01245F3F4F11968D919C91A5
:101E400012978217930721F412965C934E93119781
:101E50001D8A1C8A8C9181508C939E898091ED0300
:101E6000891710F49093ED03892F90E0FC0123E093
:101E7000EE0FFF1F2A95E1F7E80FF91FE450FC4F22
:101E8000A181B281BD83AC8314968D919C911597ED
:101E90009F838E831496ED91FC91159773836283D3
:101EA00015967C936E931497EE89EE9DF0011124A4
:101EB000E450FC4FFB87EA8780818F5F8083E0914D
:101EC000EA03F091EB039E898689891708F064CFB5
:101ED000FF24F39461CFFF24E091EA03F091EB0338
:101EE000E68989E0E89FF0011124E450FC4F8081ED
:101EF000823010F0FF24F3948091EE03882369F080
:101F0000FF24F3940AC08091F4039091F5030196A5
:101F10009093F5038093F403FF248F2DDF91CF91ED
:101F20001F910F91FF90EF9008958091EC0388230B
:101F300021F081E08093EE0308951092EE0320914A
:101F4000ED0399E001C02150299FD0011124A45034
:101F5000BC4F8C918823B9F31196ED91FC911297A7
:101F60000280F381E02D1296FC93EE931197CD0140
:101F70000396E817F90731F48281938112969C93B6
:101F80008E9311971196ED91FC911297868197810E
:101F90009093EB038093EA032093ED030895CF938E
:101FA000DF93DC011596ED91FC911697C681D781E0
:101FB000AC89BD894E855F8588899989FA019583A9
:101FC000848328893989F90153834283AE01445FB0
:101FD0005F4F11968D919C9112978417950721F46C
:101FE00012963C932E9311971D8A1C8A8C918150D6
:101FF0008C938091EC03882309F055C0AA85BB859A
:102000004C815D818E819F81FA01958384832E812D
:102010003F81F90153834283AE014E5F5F4F1196BA
:102020008D919C9112978417950721F412963C93F9
:102030002E9311971B861A868C9181508C939E89C2
:102040008091ED03891710F49093ED03892F90E0B0
:10205000FC0163E0EE0FFF1F6A95E1F7E80FF91F3F
:10206000E450FC4FA181B281BD83AC8314968D9165
:102070009C9115979F838E831496ED91FC911597F3
:102080005383428315965C934E931497EE8989E0AF
:10209000E89FF0011124E450FC4FFB87EA87808120
:1020A0008F5F80831FC0A0914004B0914104BF871F
:1020B000AE8714968D919C911597998B888B149669
:1020C000ED91FC9115975383428315965C934E9343
:1020D00014978FE394E09D8B8C8B80913F048F5FEE
:1020E00080933F04E091EA03F091EB039E89868997
:1020F000891710F080E003C081E08093EE03DF9148
:10210000CF910895CF93DF93DC01706811967C9393
:102110006E9316962D913C9117971896CD91DC9160
:10212000199712966D917C91139714968D919C91AD
:102130001597FB019583848314964D915C911597B7
:10214000FA017383628389819A818A179B0711F44C
:102150005A83498319961C921E9218978881815040
:102160008883E901AA85BB854C815D818E819F8131
:10217000FA01958384830E80DF81C02D5B834A83BF
:10218000A9014E5F5F4F11968D919C911297841714
:10219000950721F41296DC93CE931197E9011B86E3
:1021A0001A868C9181508C939E898091ED038917BA
:1021B00010F49093ED03892F90E0FC0173E0EE0F93
:1021C000FF1F7A95E1F7E80FF91FE450FC4FA1815A
:1021D000B281F901B583A48314968D919C911597D2
:1021E000978386831496ED91FC91159753834283D0
:1021F00015965C934E931497D9015696EC91569789
:1022000089E0E89FF0011124E450FC4F1B96FC93F9
:10221000EE931A9780818F5F8083E091EA03F091BB
:10222000EB0356969C918689891718F481E0809378
:10223000EE03DF91CF910895FC010FB6F8940F9251
:102240008091F30380838091EF039091F003928358
:1022500081830F900FBE0895FC018091F30380836A
:102260008091EF039091F003928381830895DC01C4
:10227000FB010FB6F8940F924091EF035091F003D9
:1022800011962D913C9112979091F3038C91981790
:1022900019F042175307D0F4CA01821B930B9C011B
:1022A000808191812817390788F4821B930B9183D1
:1022B00080838091F3038C938091EF039091F003DE
:1022C00012969C938E93119780E003C01182108226
:1022D00081E00F900FBE089581E08093EE03089592
:1022E0002091EA033091EB03C9010895E091EA03DC
:1022F000F091EB0384859585A091EA03B091EB03FF
:10230000E091EA03F091EB03468925E030E0241BDD
:1023100031091D963C932E931C970895CF92DF921E
:10232000EF92FF920F93CF93DF93EC01E114F1044E
:1023300089F0E62FF0E0EE0FFF1FEE0FFF1FE80F12
:10234000F91F81A192A1A3A1B4A1F7018083918378
:10235000A283B383A62FB0E0FE01EA0FFB1F65A1A5
:1023600082E085A30230D1F0033018F40130C9F5C2
:1023700005C0033051F10430A1F523C0FD01EE0F7B
:10238000FF1FEE0FFF1FEC0FFD1F81A192A1A3A164
:10239000B4A1822B932BA42BB52B0EC0FD01EE0F05
:1023A000FF1FEE0FFF1FEC0FFD1F81A192A1A3A144
:1023B000B4A10196A11DB11D81A392A3A3A3B4A3AF
:1023C00010C0623011F480E09DC0AA0FBB1FAA0F9D
:1023D000BB1FAC0FBD1F91962D933D934D935C9306
:1023E0009497613009F08DC08091EC03882309F047
:1023F00055C0AA85BB854C815D818E819F81FA0184
:10240000958384832E813F81F90153834283AE01FA
:102410004E5F5F4F11968D919C911297841795078F
:1024200021F412963C932E9311971B861A868C9159
:1024300081508C939E898091ED03891710F49093BD
:10244000ED03892F90E0FC01A3E0EE0FFF1FAA959A
:10245000E1F7E80FF91FE450FC4FA181B281BD8381
:10246000AC8314968D919C9115979F838E831496BF
:10247000ED91FC9115975383428315965C934E938F
:102480001497EE8989E0E89FF0011124E450FC4F95
:10249000FB87EA8780818F5F808321C0A091400401
:1024A000B0914104BF87AE8714968D919C9115978A
:1024B000998B888BCE010C961496ED91FC91159713
:1024C0009383828315969C938E9314978FE394E065
:1024D0009D8B8C8B80913F048F5F80933F04E091B4
:1024E000EA03F091EB039E898689891750F4C114A1
:1024F000D10419F081E0F601808381E08093EE033E
:1025000001C081E0DF91CF910F91FF90EF90DF90BC
:10251000CF900895CF93DF93EC01E62FBA01F0E05E
:10252000DC01AE0FBF1F95962C91959782E0959692
:102530008C93EE0FFF1FEE0FFF1FEC0FFD1F81A10D
:1025400092A1A3A1B4A10196A11DB11D81A392A343
:10255000A3A3B4A3213009F08CC08091EC0388239D
:1025600009F055C0AA85BB854C815D818E819F8114
:10257000FA01958384832E813F81F901538342833D
:10258000AE014E5F5F4F11968D919C91129784170B
:10259000950721F412963C932E9311971B861A8669
:1025A0008C9181508C939E898091ED03891710F452
:1025B0009093ED03892F90E0FC01A3E0EE0FFF1F45
:1025C000AA95E1F7E80FF91FE450FC4FA181B28111
:1025D000BD83AC8314968D919C9115979F838E83B8
:1025E0001496ED91FC9115975383428315965C9355
:1025F0004E931497EE8989E0E89FF0011124E4508E
:10260000FC4FFB87EA8780818F5F808321C0A09188
:102610004004B0914104BF87AE8714968D919C9180
:102620001597998B888BCE010C961496ED91FC91A1
:1026300015979383828315969C938E9314978FE3BB
:1026400094E09D8B8C8B80913F048F5F80933F043F
:10265000E091EA03F091EB039E898689891748F49B
:102660006115710519F081E0FB01808381E08093A1
:10267000EE03DF91CF910895009721F48091EA0352
:102680009091EB030FB6F8940F92FC01E60FF11D49
:1026900085A1823011F080E002C015A281E00F9088
:1026A0000FBE0895EF92FF920F931F9379018A0155
:1026B000009721F48091EA039091EB030FB6F89410
:1026C0000F92E62FF0E0EE0FFF1FEE0FFF1FE80F57
:1026D000F91F21A132A143A154A181A192A1A3A1DB
:1026E000B4A1E094F094009510958E219F21A02331
:1026F000B12381A392A3A3A3B4A30F900FBEB901EA
:10270000CA011F910F91FF90EF900895EF92FF92F1
:102710000F93CF93DF93EC010FB6F8940F92E1146F
:10272000F10489F0E62FF0E0EE0FFF1FEE0FFF1F20
:10273000EC0FFD1F81A192A1A3A1B4A1F701808399
:102740009183A283B383A62FB0E0FE01EA0FFB1FA3
:1027500065A182E085A30230D1F0033018F4013086
:10276000C9F505C0033051F10430A1F523C0FD01C6
:10277000EE0FFF1FEE0FFF1FEC0FFD1F81A192A1B7
:10278000A3A1B4A1822B932BA42BB52B0EC0FD01CA
:10279000EE0FFF1FEE0FFF1FEC0FFD1F81A192A197
:1027A000A3A1B4A10196A11DB11D81A392A3A3A3CE
:1027B000B4A310C0623011F480E06EC0AA0FBB1F3A
:1027C000AA0FBB1FAC0FBD1F91962D933D934D9348
:1027D0005C939497613009F05EC0AA85BB854C81FB
:1027E0005D818E819F81FA01958384832E813F8153
:1027F000F90153834283AE014E5F5F4F11968D9175
:102800009C9112978417950721F412963C932E936E
:1028100011971B861A868C9181508C939E8980918A
:10282000ED03891710F49093ED03892F90E0FC01DC
:1028300033E0EE0FFF1F3A95E1F7E80FF91FE45080
:10284000FC4FA181B281BD83AC8314968D919C9184
:1028500015979F838E831496ED91FC911597538362
:10286000428315965C934E931497EE8989E0E89F16
:10287000F0011124E450FC4FFB87EA8780818F5FD1
:102880008083E091EA03F091EB039E8986898917A2
:1028900010F40E94520981E00F900FBEDF91CF919A
:1028A0000F91FF90EF9008951F93CF93DF930FB692
:1028B000F8940F928091EC0381508093EC03809107
:1028C000EC03882309F0C7C08091F603882309F43C
:1028D000C2C0C0E0D0E079E061E084C0E09144048F
:1028E000F0914504C681D781AC89BD892E853F858D
:1028F00088899989F9019583848348895989FA01DE
:10290000338322839E01245F3F4F11968D919C91CA
:1029100012978217930721F412965C934E931197A6
:102920001D8A1C8A8C9181508C93AA85BB854C8111
:102930005D818E819F81FA01958384832E813F8101
:10294000F90153834283AE014E5F5F4F11968D9123
:102950009C9112978417950721F412963C932E931D
:1029600011971B861A868C9181508C939E89809139
:10297000ED03891710F49093ED03892F90E0FC018B
:1029800023E0EE0FFF1F2A95E1F7E80FF91FE4504F
:10299000FC4FA181B281BD83AC8314968D919C9133
:1029A00015979F838E831496ED91FC911597538311
:1029B000428315965C934E931497EE89E79FF0013E
:1029C0001124E450FC4FFB87EA8780818F5F80836E
:1029D000E091EA03F091EB039E898689981710F045
:1029E0006093EE0380913F04882309F077CFCD2BCD
:1029F000B9F0E0913B04F0913C048081882319F404
:102A00008FEF9FEF09C0E0913B04F0913C040580FB
:102A1000F681E02D808191819093F2038093F10300
:102A2000C091F403D091F503209769F011E00E9462
:102A30007D0E882311F01093EE032197C1F71092B9
:102A4000F5031092F4038091EE03882321F00E9495
:102A5000520981E001C080E00F900FBEDF91CF915D
:102A60001F9108952091EC032F5F2093EC030FB684
:102A7000F8940F922091F4033091F503280F391F39
:102A80003093F5032093F4030F900FBE0E9454146B
:102A900008950F931F93CF93DF93EC010091EF0301
:102AA0001091F0038091EA039091EB0302960E944B
:102AB0004908C00FD11FE091EA03F091EB03D383E3
:102AC000C283C017D10768F480913D0490913E0401
:102AD0006091EA037091EB036E5F7F4F0E941708CD
:102AE00017C080913B0490913C046091EA0370917F
:102AF000EB036E5F7F4F0E9417088091F103909166
:102B0000F203C817D90720F4D093F203C093F1035E
:102B1000DF91CF911F910F9108958F929F92AF9265
:102B2000BF92CF92DF92EF92FF920F931F93CF93BA
:102B3000DF9348015901E7010FB6F8940F92E09135
:102B4000EA03F091EB03E82EFF24EE0DFF1D85A1B3
:102B5000823061F1E091EA03F091EB03C701880F45
:102B6000991F880F991FE80FF91F81A192A1A3A1B6
:102B7000B4A1409550956095709584239523A62324
:102B8000B72381A392A3A3A3B4A3E091EA03F09196
:102B9000EB03EE0DFF1D81E085A3C114D10431F0DC
:102BA000C60161E00E9449150E9452090F900FBEB4
:102BB0000FB6F8940F92209799F0E091EA03F09104
:102BC000EB03C701880F991F880F991FE80FF91FA2
:102BD00081A192A1A3A1B4A188839983AA83BB8375
:102BE000E091EA03F091EB03EE0DFF1D85A1823029
:102BF00011F080E01CC0E091EA03F091EB03C70103
:102C0000880F991F880F991FE80FF91F81A192A1C2
:102C1000A3A1B4A180949094A094B0948821992108
:102C2000AA21BB2181A392A3A3A3B4A381E0E09135
:102C3000EA03F091EB03EE0DFF1D15A20F900FBEFE
:102C4000DF91CF911F910F91FF90EF90DF90CF9088
:102C5000BF90AF909F908F9008951F93CF93DF9375
:102C6000162F0FB6F8940F92E091EA03F091EB0360
:102C7000C82FD0E0CE01880F991F880F991FE80F49
:102C8000F91F81A192A1A3A1B4A10097A105B1054B
:102C900089F4E091EA03F091EB03EC0FFD1F81E072
:102CA00085A34115510531F0CA0161E00E94491523
:102CB0000E9452090F900FBE0FB6F8940F92E09148
:102CC000EA03F091EB03CE01880F991F880F991F3B
:102CD000E80FF91F21A132A143A154A1211531050B
:102CE00041055105F9F0112359F0E091EA03F09103
:102CF000EB03E80FF91F11A212A213A214A212C033
:102D0000E091EA03F091EB03215030404040504005
:102D1000E80FF91F21A332A343A354A32F5F3F4F12
:102D20004F4F5F4FE091EA03F091EB03EC0FFD1F73
:102D300015A20F900FBEB901CA01DF91CF911F916B
:102D400008950F931F938C01CA01E091EA03F0915B
:102D5000EB03706875876487F801A181B281E09107
:102D6000EA03F091EB03B787A687E091EA03F091BD
:102D7000EB0314962D913C911597318B208B20916C
:102D8000EA033091EB031496ED91FC911597245FC3
:102D90003F4F338322832091EA033091EB03245F7A
:102DA0003F4F15963C932E931497E091EA03F091D0
:102DB000EB03158B048BF80120812F5F208361E0EA
:102DC0000E9449151F910F9108959C01009769F089
:102DD0008091EC038F5F8093EC03C90160E00E9457
:102DE00049150E945414882311F40E945209089531
:102DF0001F93FC018091EC038F5F8093EC03809123
:102E0000EF039091F00320813181620F731F8217CD
:102E1000930728F46217730728F010E008C06217C0
:102E2000730720F010E08617970708F411E071830C
:102E30006083112339F09B01281B390BC90160E025
:102E40000E9449150E945414882311F40E945209CB
:102E5000812F1F9108950F931F938B016091EA03B7
:102E60007091EB03645F7F4F0E941708C80161E017
:102E70000E9449151F910F910895F8941092F7033D
:102E80000E94F10808950F931F9321C00FB6F89484
:102E90000F92E0914D04F0914E0406811781C80114
:102EA00002960E9449088091F60381508093F603B0
:102EB0008091FA0381508093FA030F900FBEF801BE
:102EC0008789908D0E94CF06C8010E94CF0680910D
:102ED000FA038823E1F3DACF0F931F93CF93DF93A5
:102EE0000FB6F8940F92009711F0EC0104C0C09156
:102EF000EA03D091EB038E010E5F1F4FC8010E94C1
:102F000049088C899D89892B21F0CE010C960E945D
:102F100049088091FB038F5F8093FB038091EA0354
:102F20009091EB03C817D90759F488E494E0B801ED
:102F30000E94F8078091FA038F5F8093FA031CC008
:102F40008091F60381508093F603E0913B04F09169
:102F50003C048081882319F48FEF9FEF09C0E09132
:102F60003B04F0913C040580F681E02D8081918145
:102F70009093F2038093F1030F900FBE8091EA03C8
:102F80009091EB03C817D90739F08F89988D0E946B
:102F9000CF06CE010E94CF068091F703882349F027
:102FA0008091EA039091EB03C817D90711F40E94AE
:102FB0005209DF91CF911F910F9108954F925F9227
:102FC0006F927F928F929F92AF92BF92CF92DF9239
:102FD000EF92FF920F931F93CF93DF932C014B013E
:102FE0005A013901CA010E94FF06EC010097B1F0B5
:102FF00086E290E00E94FF066C01009761F086E295
:10300000D6011D928A95E9F7F601D08FC78B8114FE
:10301000910431F417C0CE010E94CF068FEFE7C0B4
:10302000F401D60190E0808159968C935997808164
:10303000882329F09F5F319611969830A1F7D60129
:1030400090961C92053008F004E0F601068B52E0E1
:10305000852E912C8C0C9D1CC4010E94F407C60186
:103060000C960E94F407D6011996DC92CE9218971E
:1030700085E090E0801B91091D969C938E931C9790
:103080005396DC92CE9252970894A108B108CE01D3
:103090008A0D9B1DB201A3010E947408F601918361
:1030A0008083E114F10419F0D701CD92DC920FB6C0
:1030B000F8940F928091F6038F5F8093F6038091CE
:1030C000EA039091EB03892B79F5D092EB03C09240
:1030D000EA038091F6038130C1F5CCEFD3E0CE0155
:1030E0000E94E4072996B4E0C932DB07C1F749E240
:1030F000E42E44E0F42EC7010E94E40702E314E04A
:10310000C8010E94E4078FE394E00E94E40788E48A
:1031100094E00E94E407F0923C04E0923B04109398
:103120003E0400933D0411C08091F703882369F4A5
:10313000E091EA03F091EB039689F60186898917FD
:1031400020F0D092EB03C092EA038091FB038F5FE3
:103150008093FB03D60156969C918091ED038917CD
:1031600010F49093ED03892F90E0FC0133E0EE0F13
:10317000FF1F3A95E1F7E80FF91FE450FC4FA181DA
:10318000B281F601B583A48314968D919C91159715
:10319000978386831496ED91FC9115979382828292
:1031A00015969C928E921497D6015696EC9156974E
:1031B00089E0E89FF0011124E450FC4F1B96FC933A
:1031C000EE931A9780818F5F80830F900FBE80915E
:1031D000F703882359F0E091EA03F091EB03968915
:1031E000F6018689981710F40E94520981E0DF9158
:1031F000CF911F910F91FF90EF90DF90CF90BF90F4
:10320000AF909F908F907F906F905F904F900895B8
:10321000EF92FF920F9383E497E160E670E045E55B
:1032200050E020E030E000E0E8EFEE2EE3E0FE2E9C
:103230000E94DE17813081F4F8948FEF9FEF909316
:10324000F2038093F10381E08093F7031092F0037F
:103250001092EF030E94BC0880917D010F91FF90B6
:10326000EF900895D198D29AC99B02C0DA9A01C012
:10327000DA988AEF90E00E94E516F6CFD4988B9A00
:103280008C9A8D9A84E090E00E940C069C01442761
:1032900037FD4095542F20935404309355044093A8
:1032A000560450935704293E83E0380780E04807CE
:1032B00080E0580720F093989498959815C0213293
:1032C00083E0380780E0480780E0580718F09398BB
:1032D000949809C02D5231404040504010F09398CE
:1032E00001C0939A949A959A8AEF90E00E94E5160D
:1032F000C9CFB89AD59A80E090E00E940C06AA2720
:1033000097FDA095BA2FBC01CD010E94490320E092
:1033100030E44CE950E40E941F020E94490060938F
:10332000590470935A0480935B0490935C042AE0E0
:1033300030E040E050E00E94FF1920935804822FB3
:103340008E51843118F4DD9AC09806C0223318F0EB
:10335000DD98C09A01C0DD988AEF90E00E94E516E2
:10336000CACFEF92FF920F9381E090E00E94F005A8
:103370000E94090606C081E090E00E940406809346
:103380005D0480915D048823B1F31092510489E7B4
:1033900099E165E670E045E550E020E030E001E0CD
:1033A000F0E6EF2EF4E0FF2E0E94DE178093670414
:1033B0008EE399E161E770E045E550E020E030E020
:1033C000EEE5EE2EE4E0FE2E0E94DE17809366040A
:1033D0000E940819FFCFAA1BBB1B51E107C0AA1FFF
:1033E000BB1FA617B70710F0A61BB70B881F991FA6
:1033F0005A95A9F780959095BC01CD010895A1E259
:103400001A2EAA1BBB1BFD010DC0AA1FBB1FEE1F5E
:10341000FF1FA217B307E407F50720F0A21BB30BA9
:10342000E40BF50B661F771F881F991F1A9469F725
:1034300060957095809590959B01AC01BD01CF0181
:1034400008952F923F924F925F926F927F928F9248
:103450009F92AF92BF92CF92DF92EF92FF920F9323
:103460001F93CF93DF93CDB7DEB7CA1BDB0B0FB62D
:10347000F894DEBF0FBECDBF09942A8839884888EA
:103480005F846E847D848C849B84AA84B984C88480
:10349000DF80EE80FD800C811B81AA81B981CE0F77
:1034A000D11D0FB6F894DEBF0FBECDBFED0108955C
:1034B000FB01DC0102C001900D9241505040D8F751
:1034C0000895DC0101C06D9341505040E0F708952C
:0434D000F894FFCF9E
:1034D40049444C450054656D70657261747572653C
:1034E400004C4452000000000000000000000102F3
:1034F400020303030304040404040404040505058B
:103504000505050505050505050505050506060664
:103514000606060606060606060606060606060647
:103524000606060606060606060606060607070734
:103534000707070707070707070707070707070717
:103544000707070707070707070707070707070707
:1035540007070707070707070707070707070707F7
:1035640007070707070707070707070707080808E4
:1035740008080808080808080808080808080808C7
:1035840008080808080808080808080808080808B7
:1035940008080808080808080808080808080808A7
:1035A4000808080808080808080808080808080897
:1035B4000808080808080808080808080808080887
:1035C4000808080808080808080808080808080877
:1035D4000808080808080808080808080808080867
:1035E4000808080808080808080808080804050066
:0435F400409C4000B7
:00000001FF
