:100000000C942A000C9447000C9447000C94470071
:100010000C9447000C9447000C9447000C941F0567
:100020000C9447000C9447000C9447000C94470034
:100030000C9447000C9447000C9447000C94470024
:100040000C9447000C9447000C9447000C94470014
:100050000C94470011241FBECFE5D8E0DEBFCDBF12
:1000600011E0A0E6B0E0E0E8FDE202C005900D92EC
:10007000A438B107D9F714E0A4E8B1E001C01D929B
:10008000A635B107E1F70E9448160C94BE160C94F1
:100090000000882319F0813059F408C06C9A6998DF
:1000A000709ABD9ABE98BF9ABC9A02C06C98BE9ACC
:1000B0006D986B986A9A6E9A08958FB9779BFECF68
:1000C0008FB1089517B8379A089597B18770987FC0
:1000D000892B87B9369A349BFECF24B145B1942F32
:1000E00080E030E0282B392BC9010895909A91982F
:1000F000929A8BBB82EE94E00197F1F7929884EC90
:1001000099E00197F1F7089590989198929A8BBB96
:1001100082EE94E00197F1F7929884EC99E00197D0
:10012000F1F708950F931F938FEF8ABB889A899AEE
:100130008A9A8CE49DE10197F1F788E390E00E94B0
:1001400084000AEF10E0C8010197F1F78CE090E01D
:100150000E948400C8010197F1F781E090E00E94BD
:10016000840084EF91E00197F1F786E090E00E942F
:1001700084001F910F910895982F862F8150803110
:1001800068F4913021F0923029F08FE705C0862F76
:10019000815802C0862F81540E9484000895EF92F6
:1001A000FF921F93CF93DF93EC0110E084EFE82ED2
:1001B00081E0F82E06C00E947600C7010197F1F792
:1001C0001F5FFE01E10FF11D80818823A1F7DF9100
:1001D000CF911F91FF90EF900895EF92FF920F93B0
:1001E0001F93CF93DF937C01862F81508830E8F4F2
:1001F000660F660F660F6850862F80640E94840029
:10020000C0E0D0E004EF11E0F701EC0FFD1F8081AA
:100210000E947600C8010197F1F72196C830D105F8
:1002200099F781E061E00E94BC00DF91CF911F91BE
:100230000F91FF90EF900895813009F0605C4111BB
:10024000640F862F8150803118F480580E948400FA
:100250000895CF92DF92EF92FF920F931F93CF9367
:10026000DF93C82ED62EC0E0D0E0E62EFF24042F68
:1002700010E006C06D2D6C0F8C2D0E94BC002196E5
:10028000CE018E0D9F1D80179107A4F3DF91CF91B2
:100290001F910F91FF90EF90DF90CF900895FF9204
:1002A0000F931F93082FF92E162F862F60E040E141
:1002B0000E94290182EE94E00197F1F7E02FFF2DD3
:1002C000DF010D900020E9F7EA1BFB0B7196F69514
:1002D000E795EF5F812F6E2F0E94BC00802F9F2D2E
:1002E0000E94CF001F910F91FF90089540E050E0D1
:1002F00061E070E024B3FA01E458FE4FCB010080C6
:1003000002C0880F991F0A94E2F7282B24BB24B35C
:10031000FA01E058FE4FCB01008002C0880F991F00
:100320000A94E2F78095822384BB4F5F5F4F44308D
:10033000510501F78FEF85BB0895CF93DF93A0E0C0
:10034000B0E0C1E0D0E025B3FD01E458FE4FCE019E
:10035000008002C0880F991F0A94E2F7682F8095E9
:10036000822385BB40E050E083B3FA01E058FE4FA2
:10037000E08190E00E2E02C0959587950A94E2F7F1
:1003800080FD1AC021E030E002C0220F331FEA9541
:10039000E2F783B390E082239323892BD1F385B3D3
:1003A000682B65BBAA0FBB1FAA0FBB1FA40FB51FED
:1003B000A459BE4F8C910EC04F5F5F4F4430510522
:1003C00099F685B3682B65BB1196A430B10509F089
:1003D000BACF80E0DF91CF9108958091860190910E
:1003E0008701089580918C0190918D010895089561
:1003F000CF93DF93FC01C6EED3E0888199818E17FD
:100400009F0710F4EC01F9CF2A813B81CE01820FC6
:10041000931FE817F90739F482819381820F931FA4
:100420009B838A83FE0122813381A881B981CF0118
:10043000820F931FA817B907A1F4809184019091AE
:100440008501A817B90769F012968D919C911397B1
:10045000820F931F938382838D919C9191838083DC
:1004600002C0B183A083CE17DF0711F0F983E883C0
:10047000DF91CF910895CF92DF92EF92FF920F9389
:100480001F93CF93DF93EC010E94280AE091E603CB
:10049000F091E703309739F4CC24DD24EE24FF24D7
:1004A0000FEF1FEF1EC02091840130918501CC24F5
:1004B000DD24EE24FF240FEF1FEF10C00894C11CB1
:1004C000D11C82819381E816F90608F47C0180171B
:1004D000910708F48C010190F081E02DE217F307F9
:1004E00069F70E942410FB82EA821D830C83DF825D
:1004F000CE820FB6F8940F92809186019091870179
:100500009983888380918801909189019B878A874C
:1005100080918A0190918B019D878C8780918C01BD
:1005200090918D01998788870F900FBEDF91CF91B1
:100530001F910F91FF90EF90DF90CF900895CF9390
:10054000DF93009749F1EC0124972A813B8137FF23
:1005500023C088819981892BF9F43F773B832A83D3
:100560000E94280A80918601909187012A813B810F
:10057000820F931F9093870180938601CE010E9482
:10058000F80180918A0190918B01019690938B01E3
:1005900080938A010E942410DF91CF910895CF9219
:1005A000DF92EF92FF920F931F93CF93DF938C0113
:1005B0000E94280A8091840190918501892B51F530
:1005C0008EE891E09093E7038093E6031092E903AD
:1005D0001092E80322EE33E03093850120938401EA
:1005E0001092E5031092E4031092E3031092E203E9
:1005F00084E592E0909391018093900130938F0174
:1006000020938E0190938D0180938C0190938701AC
:10061000809386010115110539F08FEF0B3F180704
:1006200008F067C00B5F1F4F17FD63C00115110570
:1006300009F45FC0C0908601D0908701C016D10632
:1006400008F457C0C091E603D091E703E6EEF3E06B
:100650008A819B818017910740F4888199819E014E
:10066000009719F0EC01F901F3CF8091840190918A
:100670008501C817D907E9F1E080F1808881998167
:10068000918380838A819B81801B910B89309105A6
:1006900050F0FE01E00FF11F938382831B830A83D6
:1006A000CF010E94F8014A815B819601241B350B22
:1006B000309387012093860180918C0190918D0168
:1006C0002817390720F430938D0120938C0187017E
:1006D0000C5F1F4F50685B834A8319821882809198
:1006E00088019091890101969093890180938801F6
:1006F00002C000E010E00E942410C801DF91CF91F9
:100700001F910F91FF90EF90DF90CF9008950F937E
:100710001F93CF93DF939C01FB010097B9F08FEFFC
:100720009FEFB9010E948C166E177F0778F4C0E026
:10073000D0E006C0CE0160E070E0A8010E94A916DA
:10074000CE01DF91CF911F910F910895E29F80011B
:10075000E39F100DF29F100D1124C8010E94CF02DB
:10076000EC01009739F7ECCFFC019C012D5F3F4F66
:10077000328321838FEF9FEF948383833683258396
:100780003087278310820895FC0111861086089512
:10079000AC01FC01A181B281FB01B383A283149659
:1007A0008D919C911597958384831496ED91FC917E
:1007B00015977383628315967C936E931497FB0150
:1007C00051874087FA0180818F5F80830895CF939E
:1007D000DF939C01EB01488159818FEF4F3F580710
:1007E00021F4F901A781B0850DC0D90113961296A5
:1007F000ED91FC911397808191814817590710F072
:10080000DF01F5CF1296ED91FC911397FB83EA83FC
:10081000D583C483BD83AC831396DC93CE931297A8
:1008200039872887F90180818F5F8083DF91CF919D
:100830000895CF93DF93DC011896CD91DC91199741
:1008400012964D915C91139714968D919C911597EA
:10085000FA019583848314962D913C911597F901A3
:100860005383428389819A818A179B0711F43A83C3
:10087000298319961C921E9218978881815088832B
:100880008881DF91CF910895FC0191E1908322E26C
:10089000229383E3829362937293129280E882930D
:1008A000129282E0829383E0829384E0829385E0D7
:1008B000829386E0829387E0829388E0829389E046
:1008C000829380E18293929382E1829383E1829387
:1008D00084E1829385E1829386E1829387E182932A
:1008E00088E1829389E1829380E2829381E282931C
:1008F000229383E282934293529386E2829387E229
:10090000829388E2829389E2829380E3829381E3F7
:1009100082933197CF0108951BBC8EE08ABD8BE096
:100920008EBD89B7806189BFA091EA03B091EB03C6
:10093000CD91CDBFDD91DEBFFF91EF91DF91CF91E2
:10094000BF91AF919F918F917F916F915F914F91E7
:100950003F912F911F910F91FF90EF90DF90CF90DB
:10096000BF90AF909F908F907F906F905F904F90CF
:100970003F902F901F900F900FBE0F90089581E031
:10098000089508950F920FB6F8940F921F921124B4
:100990002F923F924F925F926F927F928F929F928F
:1009A000AF92BF92CF92DF92EF92FF920F931F937D
:1009B0002F933F934F935F936F937F938F939F9367
:1009C000AF93BF93CF93DF93EF93FF93A091EA038D
:1009D000B091EB030DB60D920EB60D920E944D0A2A
:1009E000882311F00E94650BA091EA03B091EB03FC
:1009F000CD91CDBFDD91DEBFFF91EF91DF91CF9122
:100A0000BF91AF919F918F917F916F915F914F9126
:100A10003F912F911F910F91FF90EF90DF90CF901A
:100A2000BF90AF909F908F907F906F905F904F900E
:100A30003F902F901F900F900FBE0F9008950E942F
:100A4000C20418950F920FB6F8940F921F921124BA
:100A50002F923F924F925F926F927F928F929F92CE
:100A6000AF92BF92CF92DF92EF92FF920F931F93BC
:100A70002F933F934F935F936F937F938F939F93A6
:100A8000AF93BF93CF93DF93EF93FF93A091EA03CC
:100A9000B091EB030DB60D920EB60D920E94650B50
:100AA000A091EA03B091EB03CD91CDBFDD91DEBF04
:100AB000FF91EF91DF91CF91BF91AF919F918F9176
:100AC0007F916F915F914F913F912F911F910F9166
:100AD000FF90EF90DF90CF90BF90AF909F908F905E
:100AE0007F906F905F904F903F902F901F900F904E
:100AF0000FBE0F900895FC010FB6F8940F92828DEF
:100B00000F900FBE0895FC010FB6F8940F92928DCE
:100B10000F900FBE838D891B0895FC01828D08956F
:100B2000FC01828D90E0882309F491E0892F0895DB
:100B3000FC01928D20E0838D981709F421E0822F2B
:100B400008950E949F020895FC01562FA72F248D1F
:100B50002223B9F086819781820F911D9783868326
:100B6000248135818217930720F0808191819783BA
:100B70008683448D66817781852F9A2F50E00E946D
:100B8000A01608950F931F93CF93DF93EC018A8DE6
:100B9000882341F00E811F81CE010E94A4051F838E
:100BA0000E8381E0DF91CF911F910F9108950F93F4
:100BB0001F93CF93DF93EC01042F1A8D4C8D4423A8
:100BC000C1F10023B1F48A819B8150E00E94A016FC
:100BD0008C8D2A813B81280F311D3B832A838C8198
:100BE0009D812817390728F1888199819B838A8301
:100BF00020C08E819F8150E00E94A0168C8D90E0D5
:100C000044275527481B590B8E819F81840F951FC0
:100C10009F838E83288139818217930730F48C81DA
:100C20009D81840F951F9F838E83023011F41111D3
:100C300011501F5F1A8F80E0DF91CF911F910F91AC
:100C40000895EF92FF920F931F93CF93DF93EC01E0
:100C50007A011A8D112311F480E01EC00D8D0E94BF
:100C6000A40511501A8F0F3F81F48885882399F0CD
:100C7000CE0108960E949F0B882369F0E114F104CD
:100C800051F081E0F701808307C00E943F0A0817F6
:100C900010F40F5F0D8F81E0DF91CF911F910F91C5
:100CA000FF90EF900895EF92FF921F93CF93DF9301
:100CB000EC017B019A8D8B8D981710F080E01CC0A1
:100CC0001E8D9F5F9A8F1F3F81F48989882399F039
:100CD000CE0141960E949F0B882369F0E114F10434
:100CE00051F081E0F701808307C00E943F0A181786
:100CF00010F41F5F1E8F81E0DF91CF911F91FF9055
:100D0000EF900895EF92FF921F93CF93DF93EC0142
:100D10007A019A8D8B8D981720F0223011F080E0A7
:100D20001FC01E8D8A8DCE01422F0E94D7051F3F06
:100D300081F48989882399F0CE0141960E949F0B06
:100D4000882369F0E114F10451F081E0F701808318
:100D500007C00E943F0A181710F41F5F1E8F81E022
:100D6000DF91CF911F91FF90EF900895EF92FF9246
:100D70001F93CF93DF93EC010FB6F8940F921E8D63
:100D800091E1E92EF12CEC0EFD1E0BC08989882320
:100D900051F0C7010E949F0B882311F00E943C0D67
:100DA000115011169CF38FEF8E8F0F900FBE0FB660
:100DB000F8940F921D8D88E0E82EF12CEC0EFD1EAC
:100DC0000BC08885882351F0C7010E949F0B8823A0
:100DD00011F00E943C0D115011169CF38FEF8D8F76
:100DE0000F900FBEDF91CF911F91FF90EF9008956C
:100DF0008F929F92AF92BF92CF92DF92EF92FF922B
:100E00000F931F93DF93CF9300D000D00F92CDB7F5
:100E1000DEB77C015B015D834C8341E1C42ED12CA4
:100E2000C80ED91E20E08E010F5F1F4F34E0832EC5
:100E3000912C8C0E9D1E01C021E00FB6F8940F92EC
:100E4000F701828D8823B9F006811781C701B501AA
:100E50000E94A405F701178306838189882339F04E
:100E6000C6010E949F0B882311F00E9422050F905B
:100E70000FBE81E054C08C819D81892B21F40F909D
:100E80000FBE80E04CC0222319F4C8010E94FC0C64
:100E90000F900FBE0E94280A0FB6F8940F92F70128
:100EA000858D8F3F09F4158EF701868D8F3F09F4EC
:100EB000168E0F900FBEC801B4010E94070D882343
:100EC000F9F40FB6F8940F92F701828D0F900FBED0
:100ED000882381F46C817D81C6010E94FB12C701C9
:100EE0000E94B6060E942410882309F0A5CF0E9414
:100EF0002205A2CFC7010E94B6060E9424109CCFF3
:100F0000C7010E94B6060E9424100FB6F8940F92F3
:100F1000F701828D0F900FBE882309F08DCF0F90BF
:100F20000F900F900F900F90CF91DF911F910F9125
:100F3000FF90EF90DF90CF90BF90AF909F908F90F9
:100F40000895AF92BF92CF92DF92EF92FF920F93EC
:100F50001F93DF93CF9300D000D00F92CDB7DEB7B1
:100F60008C017D836C8361E1E62EF12CE80EF91E85
:100F700020E06E010894C11CD11C54E0A52EB12CB8
:100F8000AC0EBD1E01C021E00FB6F8940F92F8011F
:100F9000828D882389F08150828F8085882341F05B
:100FA000C80108960E949F0B882311F00E94220519
:100FB0000F900FBE81E054C08C819D81892B21F45C
:100FC0000F900FBE80E04CC0222319F4C6010E948E
:100FD000FC0C0F900FBE0E94280A0FB6F8940F92D7
:100FE000F801858D8F3F09F4158EF801868D8F3FAE
:100FF00009F4168E0F900FBEC601B5010E94070DB1
:101000008823F9F40FB6F8940F92F801828D0F90AF
:101010000FBE882381F46C817D81C7010E94FB1281
:10102000C8010E94B6060E942410882309F0ABCFA5
:101030000E942205A8CFC8010E94B6060E94241073
:10104000A2CFC8010E94B6060E9424100FB6F894E1
:101050000F92F801828D0F900FBE882309F093CF75
:101060000F900F900F900F900F90CF91DF911F91E5
:101070000F91FF90EF90DF90CF90BF90AF900895C9
:101080006F927F928F929F92AF92BF92CF92DF9298
:10109000FF920F931F93DF93CF9300D000D00F9256
:1010A000CDB7DEB78C015B015D834C83E1E1CE2ED1
:1010B000D12CC80ED91E20E04E010894811C911C31
:1010C00074E0672E712C6C0E7D1E01C021E00FB6FE
:1010D000F8940F92F801F28CFF20B1F0C801B5012D
:1010E0000E94A405FA94F801F28E8085882341F0CD
:1010F000C80108960E949F0B882311F00E942205C8
:101100000F900FBE81E054C08C819D81892B21F40A
:101110000F900FBE80E04CC0222319F4C4010E943E
:10112000FC0C0F900FBE0E94280A0FB6F8940F9285
:10113000F801858D8F3F09F4158EF801868D8F3F5C
:1011400009F4168E0F900FBEC401B3010E94070D63
:101150008823F9F40FB6F8940F92F801828D0F905E
:101160000FBE882381F46C817D81C6010E94FB1231
:10117000C8010E94B6060E942410882309F0A6CF59
:101180000E942205A3CFC8010E94B6060E94241027
:101190009DCFC8010E94B6060E9424100FB6F89495
:1011A0000F92F801828D0F900FBE882309F08ECF29
:1011B0000F900F900F900F900F90CF91DF911F9194
:1011C0000F91FF90DF90CF90BF90AF909F908F9046
:1011D0007F906F9008956F927F929F92AF92BF928F
:1011E000CF92DF92EF92FF920F931F93DF93CF93F3
:1011F00000D000D00F92CDB7DEB78C016B015D83BC
:101200004C83922EA8E0EA2EF12CE80EF91E20E085
:101210005E010894A11CB11CF4E06F2E712C6C0EC1
:101220007D1E01C021E00FB6F8940F92F801928D57
:10123000838D981718F0F2E09F16C9F4C801B60123
:10124000492D0E94D705982FF8018189882339F00C
:10125000C80141960E949F0B882329F002C0992360
:1012600011F00E9422050F900FBE81E04CC08C81CE
:101270009D81892B19F40F900FBE44C0222319F4CD
:10128000C5010E94FC0C0F900FBE0E94280A0FB6E9
:10129000F8940F92F801858D8F3F09F4158EF801AF
:1012A000868D8F3F09F4168E0F900FBEC501B301D6
:1012B0000E94070D882309F50FB6F8940F92F801E4
:1012C000928D0F900FBEF801838D981781F46C8179
:1012D0007D81C7010E94FB12C8010E94B6060E94D0
:1012E0002410882309F09ECF0E9422059BCFC801BD
:1012F0000E94B6060E94241095CFC8010E94B6062F
:101300000E94241080E00F900F900F900F900F908C
:10131000CF91DF911F910F91FF90EF90DF90CF90D1
:10132000BF90AF909F907F906F900895CF93DF9381
:10133000EC01E62F009709F44FC02B8D222309F40E
:101340004BC03C8D8FEF9FE7622F70E00E948C16A0
:10135000832F90E06817790708F43EC00FB6F89421
:101360000F92329FC001112448815981840F951F2B
:101370009D838C831A8E5B834A832B8D30E02150B2
:1013800030408C8D90E0BC01269FC001279F900DBE
:10139000369F900D1124480F591F5F834E838FEFA6
:1013A0008D8F8E8FEE2361F48885882389F0CE019E
:1013B00008960E949F0B882359F00E94220508C0BE
:1013C000CE0108960E94B403CE0141960E94B40358
:1013D0000F900FBE81E001C080E0DF91CF910895B2
:1013E0000F931F93CF93DF93182F062F882341F17C
:1013F0008FEF9FE7612F70E00E948C16802F90E0A6
:1014000068177907E8F0019FC00111242FE7813E9A
:101410009207B0F44F960E94CF02FC01EC010097B6
:1014200089F0002319F49183808303C04F96918340
:101430008083138F048FCF0161E00E94960902C060
:10144000C0E0D0E0CE01DF91CF911F910F910895C0
:101450008091EC038F5F8093EC0308950FB6F894AE
:101460000F922091EF033091F0030F900FBEC9014E
:1014700008952091EF033091F003C9010895809100
:10148000F6030895009721F48091EA039091EB030D
:101490009C01275E3F4FC9010895EF92FF920F9381
:1014A0001F93CF93DF938091EC03882309F0FBC057
:1014B0000091EF031091F0030F5F1F4F1093F003A3
:1014C0000093EF030115110561F520913B04309164
:1014D0003C0480913D0490913E0490933C048093A1
:1014E0003B0430933E0420933D048091F3038F5FCF
:1014F0008093F303E0913B04F0913C0480818823C6
:1015000019F48FEF9FEF09C0E0913B04F0913C0488
:101510000580F681E02D808191819093F203809384
:10152000F1038091F1039091F2030817190708F471
:10153000A2C0FF2439E0E32EE0913B04F0913C048B
:101540008081882319F48FEF9FEF0EC0E0913B0458
:10155000F0913C040580F681E02DC681D7818A8117
:101560009B810817190728F49093F2038093F103E5
:1015700083C0AA85BB854C815D818E819F81FA01E4
:10158000958384832E813F81F90153834283BE0179
:101590006E5F7F4F11968D919C91129786179707DA
:1015A00021F412963C932E9311971B861A868C91E8
:1015B00081508C93AC89BD891097F9F02E853F85B9
:1015C00088899989F9019583848348895989FA0121
:1015D000338322839E01245F3F4F11968D919C910E
:1015E00012978217930721F412965C934E931197EA
:1015F0001D8A1C8A8C9181508C939E898091ED0369
:10160000891710F49093ED03892F90E0FC0123E0FB
:10161000EE0FFF1F2A95E1F7E80FF91FE450FC4F8A
:10162000A181B281BD83AC8314968D919C91159755
:101630009F838E831496ED91FC911597738362833B
:1016400015967C936E931497EE89EE9DF00111240C
:10165000E450FC4FFB87EA8780818F5F8083E091B5
:10166000EA03F091EB039E898689891708F064CF1D
:10167000FF24F39461CFFF24E091EA03F091EB03A0
:10168000E68989E0E89FF0011124E450FC4F808155
:10169000823010F0FF24F3948091EE03882369F0E8
:1016A000FF24F3940AC08091F4039091F50301960E
:1016B0009093F5038093F403FF248F2DDF91CF9156
:1016C0001F910F91FF90EF9008958091EC03882374
:1016D00021F081E08093EE0308951092EE032091B3
:1016E000ED0399E001C02150299FD0011124A4509D
:1016F000BC4F8C918823B9F31196ED91FC91129710
:101700000280F381E02D1296FC93EE931197CD01A8
:101710000396E817F90731F48281938112969C931E
:101720008E9311971196ED91FC9112978681978176
:101730009093EB038093EA032093ED030895CF93F6
:10174000DF93DC011596ED91FC911697C681D78148
:10175000AC89BD894E855F8588899989FA01958311
:10176000848328893989F90153834283AE01445F18
:101770005F4F11968D919C9112978417950721F4D4
:1017800012963C932E9311971D8A1C8A8C9181503E
:101790008C938091EC03882309F055C0AA85BB8502
:1017A0004C815D818E819F81FA01958384832E8196
:1017B0003F81F90153834283AE014E5F5F4F119623
:1017C0008D919C9112978417950721F412963C9362
:1017D0002E9311971B861A868C9181508C939E892B
:1017E0008091ED03891710F49093ED03892F90E019
:1017F000FC0163E0EE0FFF1F6A95E1F7E80FF91FA8
:10180000E450FC4FA181B281BD83AC8314968D91CD
:101810009C9115979F838E831496ED91FC9115975B
:101820005383428315965C934E931497EE8989E017
:10183000E89FF0011124E450FC4FFB87EA87808188
:101840008F5F80831FC0A0914004B0914104BF8787
:10185000AE8714968D919C911597998B888B1496D1
:10186000ED91FC9115975383428315965C934E93AB
:1018700014978FE394E09D8B8C8B80913F048F5F56
:1018800080933F04E091EA03F091EB039E898689FF
:10189000891710F080E003C081E08093EE03DF91B0
:1018A000CF910895CF93DF93DC01706811967C93FC
:1018B0006E9316962D913C9117971896CD91DC91C9
:1018C000199712966D917C91139714968D919C9116
:1018D0001597FB019583848314964D915C91159720
:1018E000FA017383628389819A818A179B0711F4B5
:1018F0005A83498319961C921E92189788818150A9
:101900008883E901AA85BB854C815D818E819F8199
:10191000FA01958384830E80DF81C02D5B834A8327
:10192000A9014E5F5F4F11968D919C91129784177C
:10193000950721F41296DC93CE931197E9011B864B
:101940001A868C9181508C939E898091ED03891722
:1019500010F49093ED03892F90E0FC0173E0EE0FFB
:10196000FF1F7A95E1F7E80FF91FE450FC4FA181C2
:10197000B281F901B583A48314968D919C9115973A
:10198000978386831496ED91FC9115975383428338
:1019900015965C934E931497D9015696EC915697F1
:1019A00089E0E89FF0011124E450FC4F1B96FC9362
:1019B000EE931A9780818F5F8083E091EA03F09124
:1019C000EB0356969C918689891718F481E08093E1
:1019D000EE03DF91CF910895FC010FB6F8940F92BA
:1019E0008091F30380838091EF039091F0039283C1
:1019F00081830F900FBE0895FC018091F3038083D3
:101A00008091EF039091F003928381830895DC012C
:101A1000FB010FB6F8940F924091EF035091F00341
:101A200011962D913C9112979091F3038C919817F8
:101A300019F042175307D0F4CA01821B930B9C0183
:101A4000808191812817390788F4821B930B918339
:101A500080838091F3038C938091EF039091F00346
:101A600012969C938E93119780E003C0118210828E
:101A700081E00F900FBE089581E08093EE030895FA
:101A80002091EA033091EB03C9010895E091EA0344
:101A9000F091EB0384859585A091EA03B091EB0367
:101AA000E091EA03F091EB03468925E030E0241B46
:101AB00031091D963C932E931C970895CF92DF9287
:101AC000EF92FF920F93CF93DF93EC01E114F104B7
:101AD00089F0E62FF0E0EE0FFF1FEE0FFF1FE80F7B
:101AE000F91F81A192A1A3A1B4A1F70180839183E1
:101AF000A283B383A62FB0E0FE01EA0FFB1F65A10E
:101B000082E085A30230D1F0033018F40130C9F52A
:101B100005C0033051F10430A1F523C0FD01EE0FE3
:101B2000FF1FEE0FFF1FEC0FFD1F81A192A1A3A1CC
:101B3000B4A1822B932BA42BB52B0EC0FD01EE0F6D
:101B4000FF1FEE0FFF1FEC0FFD1F81A192A1A3A1AC
:101B5000B4A10196A11DB11D81A392A3A3A3B4A317
:101B600010C0623011F480E09DC0AA0FBB1FAA0F05
:101B7000BB1FAC0FBD1F91962D933D934D935C936E
:101B80009497613009F08DC08091EC03882309F0AF
:101B900055C0AA85BB854C815D818E819F81FA01EC
:101BA000958384832E813F81F90153834283AE0163
:101BB0004E5F5F4F11968D919C91129784179507F8
:101BC00021F412963C932E9311971B861A868C91C2
:101BD00081508C939E898091ED03891710F4909326
:101BE000ED03892F90E0FC01A3E0EE0FFF1FAA9503
:101BF000E1F7E80FF91FE450FC4FA181B281BD83EA
:101C0000AC8314968D919C9115979F838E83149627
:101C1000ED91FC9115975383428315965C934E93F7
:101C20001497EE8989E0E89FF0011124E450FC4FFD
:101C3000FB87EA8780818F5F808321C0A091400469
:101C4000B0914104BF87AE8714968D919C911597F2
:101C5000998B888BCE010C961496ED91FC9115977B
:101C60009383828315969C938E9314978FE394E0CD
:101C70009D8B8C8B80913F048F5F80933F04E0911C
:101C8000EA03F091EB039E898689891750F4C11409
:101C9000D10419F081E0F601808381E08093EE03A6
:101CA00001C081E0DF91CF910F91FF90EF90DF9025
:101CB000CF900895CF93DF93EC01E62FBA01F0E0C7
:101CC000DC01AE0FBF1F95962C91959782E09596FB
:101CD0008C93EE0FFF1FEE0FFF1FEC0FFD1F81A176
:101CE00092A1A3A1B4A10196A11DB11D81A392A3AC
:101CF000A3A3B4A3213009F08CC08091EC03882306
:101D000009F055C0AA85BB854C815D818E819F817C
:101D1000FA01958384832E813F81F90153834283A5
:101D2000AE014E5F5F4F11968D919C911297841773
:101D3000950721F412963C932E9311971B861A86D1
:101D40008C9181508C939E898091ED03891710F4BA
:101D50009093ED03892F90E0FC01A3E0EE0FFF1FAD
:101D6000AA95E1F7E80FF91FE450FC4FA181B28179
:101D7000BD83AC8314968D919C9115979F838E8320
:101D80001496ED91FC9115975383428315965C93BD
:101D90004E931497EE8989E0E89FF0011124E450F6
:101DA000FC4FFB87EA8780818F5F808321C0A091F1
:101DB0004004B0914104BF87AE8714968D919C91E9
:101DC0001597998B888BCE010C961496ED91FC910A
:101DD00015979383828315969C938E9314978FE324
:101DE00094E09D8B8C8B80913F048F5F80933F04A8
:101DF000E091EA03F091EB039E898689891748F404
:101E00006115710519F081E0FB01808381E0809309
:101E1000EE03DF91CF910895009721F48091EA03BA
:101E20009091EB030FB6F8940F92FC01E60FF11DB1
:101E300085A1823011F080E002C015A281E00F90F0
:101E40000FBE0895EF92FF920F931F9379018A01BD
:101E5000009721F48091EA039091EB030FB6F89478
:101E60000F92E62FF0E0EE0FFF1FEE0FFF1FE80FBF
:101E7000F91F21A132A143A154A181A192A1A3A143
:101E8000B4A1E094F094009510958E219F21A02399
:101E9000B12381A392A3A3A3B4A30F900FBEB90152
:101EA000CA011F910F91FF90EF900895EF92FF925A
:101EB0000F93CF93DF93EC010FB6F8940F92E114D8
:101EC000F10489F0E62FF0E0EE0FFF1FEE0FFF1F89
:101ED000EC0FFD1F81A192A1A3A1B4A1F701808302
:101EE0009183A283B383A62FB0E0FE01EA0FFB1F0C
:101EF00065A182E085A30230D1F0033018F40130EF
:101F0000C9F505C0033051F10430A1F523C0FD012E
:101F1000EE0FFF1FEE0FFF1FEC0FFD1F81A192A11F
:101F2000A3A1B4A1822B932BA42BB52B0EC0FD0132
:101F3000EE0FFF1FEE0FFF1FEC0FFD1F81A192A1FF
:101F4000A3A1B4A10196A11DB11D81A392A3A3A336
:101F5000B4A310C0623011F480E06EC0AA0FBB1FA2
:101F6000AA0FBB1FAC0FBD1F91962D933D934D93B0
:101F70005C939497613009F05EC0AA85BB854C8163
:101F80005D818E819F81FA01958384832E813F81BB
:101F9000F90153834283AE014E5F5F4F11968D91DD
:101FA0009C9112978417950721F412963C932E93D7
:101FB00011971B861A868C9181508C939E898091F3
:101FC000ED03891710F49093ED03892F90E0FC0145
:101FD00033E0EE0FFF1F3A95E1F7E80FF91FE450E9
:101FE000FC4FA181B281BD83AC8314968D919C91ED
:101FF00015979F838E831496ED91FC9115975383CB
:10200000428315965C934E931497EE8989E0E89F7E
:10201000F0011124E450FC4FFB87EA8780818F5F39
:102020008083E091EA03F091EB039E89868989170A
:1020300010F40E94220581E00F900FBEDF91CF9136
:102040000F91FF90EF9008951F93CF93DF930FB6FA
:10205000F8940F928091EC0381508093EC0380916F
:10206000EC03882309F0C7C08091F603882309F4A4
:10207000C2C0C0E0D0E079E061E084C0E0914404F7
:10208000F0914504C681D781AC89BD892E853F85F5
:1020900088899989F9019583848348895989FA0146
:1020A000338322839E01245F3F4F11968D919C9133
:1020B00012978217930721F412965C934E9311970F
:1020C0001D8A1C8A8C9181508C93AA85BB854C817A
:1020D0005D818E819F81FA01958384832E813F816A
:1020E000F90153834283AE014E5F5F4F11968D918C
:1020F0009C9112978417950721F412963C932E9386
:1021000011971B861A868C9181508C939E898091A1
:10211000ED03891710F49093ED03892F90E0FC01F3
:1021200023E0EE0FFF1F2A95E1F7E80FF91FE450B7
:10213000FC4FA181B281BD83AC8314968D919C919B
:1021400015979F838E831496ED91FC911597538379
:10215000428315965C934E931497EE89E79FF001A6
:102160001124E450FC4FFB87EA8780818F5F8083D6
:10217000E091EA03F091EB039E898689981710F0AD
:102180006093EE0380913F04882309F077CFCD2B35
:10219000B9F0E0913B04F0913C048081882319F46C
:1021A0008FEF9FEF09C0E0913B04F0913C04058064
:1021B000F681E02D808191819093F2038093F10369
:1021C000C091F403D091F503209769F011E00E94CB
:1021D0004D0A882311F01093EE032197C1F7109256
:1021E000F5031092F4038091EE03882321F00E94FE
:1021F000220581E001C080E00F900FBEDF91CF91FA
:102200001F9108952091EC032F5F2093EC030FB6EC
:10221000F8940F922091F4033091F503280F391FA1
:102220003093F5032093F4030F900FBE0E94241007
:1022300008950F931F93CF93DF93EC010091EF0369
:102240001091F0038091EA039091EB0302960E94B3
:102250001904C00FD11FE091EA03F091EB03D3837F
:10226000C283C017D10768F480913D0490913E0469
:102270006091EA037091EB036E5F7F4F0E94E7036A
:1022800017C080913B0490913C046091EA037091E7
:10229000EB036E5F7F4F0E94E7038091F103909103
:1022A000F203C817D90720F4D093F203C093F103C7
:1022B000DF91CF911F910F9108958F929F92AF92CE
:1022C000BF92CF92DF92EF92FF920F931F93CF9323
:1022D000DF9348015901E7010FB6F8940F92E0919E
:1022E000EA03F091EB03E82EFF24EE0DFF1D85A11C
:1022F000823061F1E091EA03F091EB03C701880FAE
:10230000991F880F991FE80FF91F81A192A1A3A11E
:10231000B4A1409550956095709584239523A6238C
:10232000B72381A392A3A3A3B4A3E091EA03F091FE
:10233000EB03EE0DFF1D81E085A3C114D10431F044
:10234000C60161E00E9419110E9422050F900FBE84
:102350000FB6F8940F92209799F0E091EA03F0916C
:10236000EB03C701880F991F880F991FE80FF91F0A
:1023700081A192A1A3A1B4A188839983AA83BB83DD
:10238000E091EA03F091EB03EE0DFF1D85A1823091
:1023900011F080E01CC0E091EA03F091EB03C7016B
:1023A000880F991F880F991FE80FF91F81A192A12B
:1023B000A3A1B4A180949094A094B0948821992171
:1023C000AA21BB2181A392A3A3A3B4A381E0E0919E
:1023D000EA03F091EB03EE0DFF1D15A20F900FBE67
:1023E000DF91CF911F910F91FF90EF90DF90CF90F1
:1023F000BF90AF909F908F9008951F93CF93DF93DE
:10240000162F0FB6F8940F92E091EA03F091EB03C8
:10241000C82FD0E0CE01880F991F880F991FE80FB1
:10242000F91F81A192A1A3A1B4A10097A105B105B3
:1024300089F4E091EA03F091EB03EC0FFD1F81E0DA
:1024400085A34115510531F0CA0161E00E941911BF
:102450000E9422050F900FBE0FB6F8940F92E091E4
:10246000EA03F091EB03CE01880F991F880F991FA3
:10247000E80FF91F21A132A143A154A12115310573
:1024800041055105F9F0112359F0E091EA03F0916B
:10249000EB03E80FF91F11A212A213A214A212C09B
:1024A000E091EA03F091EB0321503040404050406E
:1024B000E80FF91F21A332A343A354A32F5F3F4F7B
:1024C0004F4F5F4FE091EA03F091EB03EC0FFD1FDC
:1024D00015A20F900FBEB901CA01DF91CF911F91D4
:1024E00008950F931F938C01CA01E091EA03F091C4
:1024F000EB03706875876487F801A181B281E09170
:10250000EA03F091EB03B787A687E091EA03F09125
:10251000EB0314962D913C911597318B208B2091D4
:10252000EA033091EB031496ED91FC911597245F2B
:102530003F4F338322832091EA033091EB03245FE2
:102540003F4F15963C932E931497E091EA03F09138
:10255000EB03158B048BF80120812F5F208361E052
:102560000E9419111F910F9108959C01009769F025
:102570008091EC038F5F8093EC03C90160E00E94BF
:1025800019110E942410882311F40E942205089535
:102590001F93FC018091EC038F5F8093EC0380918B
:1025A000EF039091F00320813181620F731F821736
:1025B000930728F46217730728F010E008C0621729
:1025C000730720F010E08617970708F411E0718375
:1025D0006083112339F09B01281B390BC90160E08E
:1025E0000E9419110E942410882311F40E942205D0
:1025F000812F1F9108950F931F938B016091EA0320
:102600007091EB03645F7F4F0E94E703C80161E0B4
:102610000E9419111F910F910895F8941092F703D9
:102620000E94C10408950F931F9321C00FB6F89420
:102630000F92E0914D04F0914E0406811781C8017C
:1026400002960E9419048091F60381508093F6034C
:102650008091FA0381508093FA030F900FBEF80126
:102660008789908D0E949F02C8010E949F028091DD
:10267000FA038823E1F3DACF0F931F93CF93DF930D
:102680000FB6F8940F92009711F0EC0104C0C091BE
:10269000EA03D091EB038E010E5F1F4FC8010E9429
:1026A00019048C899D89892B21F0CE010C960E94FA
:1026B00019048091FB038F5F8093FB038091EA03F1
:1026C0009091EB03C817D90759F488E494E0B80156
:1026D0000E94C8038091FA038F5F8093FA031CC0A5
:1026E0008091F60381508093F603E0913B04F091D2
:1026F0003C048081882319F48FEF9FEF09C0E0919B
:102700003B04F0913C040580F681E02D80819181AD
:102710009093F2038093F1030F900FBE8091EA0330
:102720009091EB03C817D90739F08F89988D0E94D3
:102730009F02CE010E949F028091F703882349F0F7
:102740008091EA039091EB03C817D90711F40E9416
:102750002205DF91CF911F910F9108954F925F92C3
:102760006F927F928F929F92AF92BF92CF92DF92A1
:10277000EF92FF920F931F93CF93DF932C014B01A6
:102780005A013901CA010E94CF02EC010097B1F051
:1027900086E290E00E94CF026C01009761F086E231
:1027A000D6011D928A95E9F7F601D08FC78B811467
:1027B000910431F417C0CE010E949F028FEFE7C051
:1027C000F401D60190E0808159968C9359978081CD
:1027D000882329F09F5F319611969830A1F7D60192
:1027E00090961C92053008F004E0F601068B52E04A
:1027F000852E912C8C0C9D1CC4010E94C403C60123
:102800000C960E94C403D6011996DC92CE921897BA
:1028100085E090E0801B91091D969C938E931C97F8
:102820005396DC92CE9252970894A108B108CE013B
:102830008A0D9B1DB201A3010E944404F6019183FD
:102840008083E114F10419F0D701CD92DC920FB628
:10285000F8940F928091F6038F5F8093F603809136
:10286000EA039091EB03892B79F5D092EB03C092A8
:10287000EA038091F6038130C1F5CCEFD3E0CE01BD
:102880000E94B4032996B4E0C932DB07C1F749E2DC
:10289000E42E44E0F42EC7010E94B40302E314E0E6
:1028A000C8010E94B4038FE394E00E94B40388E45B
:1028B00094E00E94B403F0923C04E0923B04109335
:1028C0003E0400933D0411C08091F703882369F40E
:1028D000E091EA03F091EB039689F6018689891766
:1028E00020F0D092EB03C092EA038091FB038F5F4C
:1028F0008093FB03D60156969C918091ED03891736
:1029000010F49093ED03892F90E0FC0133E0EE0F7B
:10291000FF1F3A95E1F7E80FF91FE450FC4FA18142
:10292000B281F601B583A48314968D919C9115977D
:10293000978386831496ED91FC91159793828282FA
:1029400015969C928E921497D6015696EC915697B6
:1029500089E0E89FF0011124E450FC4F1B96FC93A2
:10296000EE931A9780818F5F80830F900FBE8091C6
:10297000F703882359F0E091EA03F091EB0396897D
:10298000F6018689981710F40E94220581E0DF91F4
:10299000CF911F910F91FF90EF90DF90CF90BF905C
:1029A000AF909F908F907F906F905F904F90089521
:1029B000EF92FF920F9383E193E160E670E045E5CB
:1029C00050E020E030E000E0E8EFEE2EE3E0FE2E05
:1029D0000E94AE13813081F4F8948FEF9FEF9093B3
:1029E000F2038093F10381E08093F7031092F003E8
:1029F0001092EF030E948C048091E7000F91FF90EA
:102A0000EF9008950F931F938C0181E090E00E9456
:102A1000840084ED90E30197F1F7C80161E070E074
:102A20000E944F0180E29EE429E130E0F9013197F4
:102A3000F1F70197D9F781E090E00E9484001F919F
:102A40000F91089585E690E061E070E00E944F01EB
:102A50008DE690E062E070E00E944F0188E893E12B
:102A600029E130E0F9013197F1F70197D9F781E0D9
:102A700090E00E94840008951F9381E090E061E05F
:102A800070E00E94BC008CE790E00E94CF000E94A2
:102A90009D01182F10531A30D0F781E090E067E0C5
:102AA00070E00E94BC008DE0189FC0011124865187
:102AB0009F4F0E94CF00812F1F9108957F928F9288
:102AC0009F92AF92BF92CF92DF92EF92FF920F93BD
:102AD0001F93DF93CF9300D00F92CDB7DEB790E076
:102AE0002DE030E0AC01429FC001439F900D529F0A
:102AF000900D112434EFA32E30E0B32EA80EB91E92
:102B00002AEEC22E20E0D22EC80ED91E03E093E09A
:102B1000792E7E010894E11CF11C89E1882E912C0C
:102B2000F701472D11924A95E9F782E090E061E0C4
:102B300070E00E94BC0083E890E00E94CF0010E0AB
:102B40000E949D01982F80538A30D0F7F701E10F42
:102B5000F11D90838AE290E00E9476001F5F13309F
:102B600078F388E893E1F4013197F1F70197D9F709
:102B7000C701B50143E050E00E94B016009711F480
:102B800081E041C0015081E090E00E9484008AE829
:102B900090E061E070E00E944F0182E090E062E02E
:102BA00070E00E94BC0088E990E00E94CF00802F76
:102BB00090E0C0960E94760080E197E2F4013197A0
:102BC000F1F70197D9F781E090E00E94840081E05D
:102BD00090E061E070E00E94BC008CE790E00E9411
:102BE000CF0081E090E067E070E00E94BC00C60189
:102BF0000E94CF00002309F093CF85EA90E00E9465
:102C00000215C09A80E00F900F900F90CF91DF9146
:102C10001F910F91FF90EF90DF90CF90BF90AF90FA
:102C20009F908F907F9008950E943C158A3030F0DD
:102C300083EB90E00E94021580E008950E945E15EB
:102C4000882311F081E008958EEB90E00E94021538
:102C500080E0089582E390E00E94B5128091E80040
:102C60008823C1F3C19A88EB9BE00E94B512C198FA
:102C700088E893E10E94B512C29A88EB9BE00E941B
:102C8000B512C2988091E80081508093E800E2CFAD
:102C9000EF92FF920F9380E090E00E9449000E9423
:102CA00092000E947601B89AB99ABA9A0E942215A7
:102CB0000E941416882329F48AE890E00E940215E5
:102CC000FBCF81E090E00E9484008FEC90E061E017
:102CD00070E00E944F0181E090E00E945D008093CF
:102CE000520480E197E229E130E0F9013197F1F7F0
:102CF0000197D9F78AE296E16EED70E045E550E084
:102D000020E030E001E0EE24FF240E94AE13809327
:102D100055040E94D814FFCFAA1BBB1B51E107C06A
:102D2000AA1FBB1FA617B70710F0A61BB70B881F5B
:102D3000991F5A95A9F780959095BC01CD010895EA
:102D4000FB01DC0102C001900D9241505040D8F7C8
:102D50000895DC0101C06D9341505040E0F70895A3
:102D6000FB01DC014150504030F08D910190801901
:102D700019F40020B9F7881B990B0895F894FFCF38
:102D800049444C450057656C636F6D6500746F2056
:102D9000536D61727420486F6D65210075736572A3
:102DA0003A2000706173733A200041636365737366
:102DB0002044656E696564007472696573206C6592
:102DC00066743A20004E6F206D6F726520747269D0
:102DD000657300496E76616C696420494400496EF0
:102DE00076616C69642050617373776F726400411F
:102DF0006363657373204772616E746564004F701E
:102E0000656E446F6F7200040101416264616C6C15
:102E1000616800003030304D61686D6F756400008E
:102E2000003131314D6F68616D6D65640000323283
:102E3000324D6F68616D6D656400003333334C61F2
:102E40006D696161000000003434344D6F7374614A
:102E50006661000000353535596F73736566000093
:102E6000000036363641686D6564000000000037AA
:102E70003737416C69000000000000003838384DD9
:102E80006F6E610000000000003939393738392F82
:102E90003435362A3132332D4E303D2B00010203BA
:042EA0000405060718
:00000001FF
